{
  "contractName": "Auction",
  "abi": [
    {
      "inputs": [],
      "payable": false,
      "stateMutability": "nonpayable",
      "type": "constructor"
    },
    {
      "constant": true,
      "inputs": [],
      "name": "beneficiary",
      "outputs": [
        {
          "internalType": "address payable",
          "name": "",
          "type": "address"
        }
      ],
      "payable": false,
      "stateMutability": "view",
      "type": "function"
    },
    {
      "constant": true,
      "inputs": [],
      "name": "highestBid",
      "outputs": [
        {
          "internalType": "uint256",
          "name": "",
          "type": "uint256"
        }
      ],
      "payable": false,
      "stateMutability": "view",
      "type": "function"
    },
    {
      "constant": true,
      "inputs": [],
      "name": "highestBidder",
      "outputs": [
        {
          "internalType": "address",
          "name": "",
          "type": "address"
        }
      ],
      "payable": false,
      "stateMutability": "view",
      "type": "function"
    },
    {
      "constant": false,
      "inputs": [],
      "name": "bid",
      "outputs": [],
      "payable": true,
      "stateMutability": "payable",
      "type": "function"
    },
    {
      "constant": false,
      "inputs": [],
      "name": "withdraw",
      "outputs": [
        {
          "internalType": "bool",
          "name": "",
          "type": "bool"
        }
      ],
      "payable": false,
      "stateMutability": "nonpayable",
      "type": "function"
    },
    {
      "constant": false,
      "inputs": [],
      "name": "auctionEnd",
      "outputs": [],
      "payable": false,
      "stateMutability": "nonpayable",
      "type": "function"
    }
  ],
  "bytecode": "0x608060405234801561001057600080fd5b506000600281905550336000806101000a81548173ffffffffffffffffffffffffffffffffffffffff021916908373ffffffffffffffffffffffffffffffffffffffff1602179055506001600460006101000a81548160ff021916908315150217905550610577806100836000396000f3fe6080604052600436106100555760003560e01c80631998aeef1461005a5780632a24f46c1461006457806338af3eed1461007b5780633ccfd60b146100d257806391f9015714610101578063d57bde7914610158575b600080fd5b610062610183565b005b34801561007057600080fd5b50610079610290565b005b34801561008757600080fd5b50610090610390565b604051808273ffffffffffffffffffffffffffffffffffffffff1673ffffffffffffffffffffffffffffffffffffffff16815260200191505060405180910390f35b3480156100de57600080fd5b506100e76103b5565b604051808215151515815260200191505060405180910390f35b34801561010d57600080fd5b50610116610516565b604051808273ffffffffffffffffffffffffffffffffffffffff1673ffffffffffffffffffffffffffffffffffffffff16815260200191505060405180910390f35b34801561016457600080fd5b5061016d61053c565b6040518082815260200191505060405180910390f35b600254341161019157600080fd5b600060025490506000600160009054906101000a900473ffffffffffffffffffffffffffffffffffffffff1690503460028190555033600160006101000a81548173ffffffffffffffffffffffffffffffffffffffff021916908373ffffffffffffffffffffffffffffffffffffffff160217905550600360008273ffffffffffffffffffffffffffffffffffffffff1673ffffffffffffffffffffffffffffffffffffffff168152602001908152602001600020548201600360008373ffffffffffffffffffffffffffffffffffffffff1673ffffffffffffffffffffffffffffffffffffffff168152602001908152602001600020819055505050565b3373ffffffffffffffffffffffffffffffffffffffff166000809054906101000a900473ffffffffffffffffffffffffffffffffffffffff1673ffffffffffffffffffffffffffffffffffffffff16146102e957600080fd5b60011515600460009054906101000a900460ff1615151461030957600080fd5b6000600460006101000a81548160ff0219169083151502179055506000809054906101000a900473ffffffffffffffffffffffffffffffffffffffff1673ffffffffffffffffffffffffffffffffffffffff166108fc6002549081150290604051600060405180830381858888f1935050505015801561038d573d6000803e3d6000fd5b50565b6000809054906101000a900473ffffffffffffffffffffffffffffffffffffffff1681565b600080600360003373ffffffffffffffffffffffffffffffffffffffff1673ffffffffffffffffffffffffffffffffffffffff168152602001908152602001600020541161040257600080fd5b6000600360003373ffffffffffffffffffffffffffffffffffffffff1673ffffffffffffffffffffffffffffffffffffffff1681526020019081526020016000205490506000600360003373ffffffffffffffffffffffffffffffffffffffff1673ffffffffffffffffffffffffffffffffffffffff1681526020019081526020016000208190555060003373ffffffffffffffffffffffffffffffffffffffff166108fc839081150290604051600060405180830381858888f1935050505090508061050e5781600360003373ffffffffffffffffffffffffffffffffffffffff1673ffffffffffffffffffffffffffffffffffffffff168152602001908152602001600020819055505b809250505090565b600160009054906101000a900473ffffffffffffffffffffffffffffffffffffffff1681565b6002548156fea265627a7a7231582030dd1fd4c5b1356d031804319d9fdc6bd41aca27361e7aae41aa253808b0efe564736f6c63430005100032",
  "source": "pragma solidity ^0.5.0;\r\n\r\ncontract Auction {\r\n    address payable public beneficiary;\r\n\r\n    // Current state of the auction. You can create more variables if needed\r\n    address public highestBidder;\r\n    uint public highestBid;\r\n\r\n    // Allowed withdrawals of previous bids\r\n    mapping(address => uint) pendingReturns;\r\n\r\n    // Constructor\r\n    bool flag;\r\n    constructor() public {\r\n        highestBid=0;\r\n        beneficiary = msg.sender;\r\n        flag=true; \r\n    }\r\n\r\n    /// Bid on the auction with the value sent\r\n    /// together with this transaction.\r\n    /// The value will only be refunded if the\r\n    /// auction is not won.\r\n    function bid() public payable {\r\n\r\n\r\n        // TODO If the bid is not higher than highestBid, send the\r\n        // money back. Use \"require\"\r\n        require(msg.value > highestBid);\r\n        // TODO update state\r\n        uint old_bid=highestBid;\r\n        address old_add=highestBidder;\r\n        highestBid=msg.value;\r\n        highestBidder=msg.sender;\r\n        // TODO store the previously highest bid in pendingReturns. That bidder\r\n        // will need to trigger withdraw() to get the money back.\r\n        // For example, A bids 5 ETH. Then, B bids 6 ETH and becomes the highest bidder. \r\n        // Store A and 5 ETH in pendingReturns. \r\n        // A will need to trigger withdraw() later to get that 5 ETH back.\r\n        pendingReturns[old_add]=old_bid+pendingReturns[old_add];\r\n        // Sending back the money by simply using\r\n        // highestBidder.send(highestBid) is a security risk\r\n        // because it could execute an untrusted contract.\r\n        // It is always safer to let the recipients\r\n        // withdraw their money themselves.\r\n        \r\n    }\r\n\r\n    /// Withdraw a bid that was overbid.\r\n    function withdraw() public returns (bool) {\r\n        require(pendingReturns[msg.sender]>0);\r\n        // uint tempbal=pendingReturns[msg.sender];\r\n        uint bal=pendingReturns[msg.sender];\r\n        pendingReturns[msg.sender]=0;\r\n        bool  ans= msg.sender.send(bal);\r\n        if(!ans){\r\n            pendingReturns[msg.sender]=bal;\r\n        }\r\n        return ans;\r\n        // TODO send back the amount in pendingReturns to the sender. Try to avoid the reentrancy attack. Return false if there is an error when sending\r\n    }\r\n\r\n    /// End the auction and send the highest bid\r\n    /// to the beneficiary.\r\n    function auctionEnd() public {\r\n         require(beneficiary==msg.sender); \r\n         require(flag==true);\r\n\r\n         flag=false;\r\n         beneficiary.transfer(highestBid);\r\n    }\r\n}",
  "sourcePath": "D:\\UF sem 2\\Blockchain\\Homework1\\hw1-source\\contracts\\Auction.sol",
  "compiler": {
    "name": "solc",
    "version": "0.5.16+commit.9c3226ce.Emscripten.clang"
  },
  "schemaVersion": "3.0.23",
  "updatedAt": "2020-02-25T03:37:53.626Z",
  "networkType": "ethereum",
  "devdoc": {
    "methods": {}
  },
  "userdoc": {
    "methods": {
      "auctionEnd()": {
        "notice": "End the auction and send the highest bid to the beneficiary."
      },
      "bid()": {
        "notice": "Bid on the auction with the value sent together with this transaction. The value will only be refunded if the auction is not won."
      },
      "withdraw()": {
        "notice": "Withdraw a bid that was overbid."
      }
    }
  }
}